:020000020000FC
:100000000CC0189518951895189518951895189569
:100010001895189518951895189502E00EBFEFE5FC
:100020000DBF00273BC000000000000000000000E2
:10003000089500EA056305BF01E006B907B9002786
:1000400008953898F0DF389A0895F3DFFADF0FE368
:100050000093008000EC0093008000270895F0E8F2
:1000600016FDF395F39510641083E86BE083E77059
:10007000F0FD1F73F3700895F2DFF86800830895B0
:10008000EEDFFC68008100810895E7E01FE7F4DF00
:10009000F7DF1A95E2F7EA95CAF70895D6DF00EF81
:1000A000F4DF0AEA11E0E1E0E7DFE6DFE9DFE8DFBD
:1000B00014E5E3E0E1DF00910085B5DF10910086F3
:1000C000B2DF0FEC0093008105EC00930081FFCFBD
:00000001FF
